{
	"result": {
		"hex": "01000000010000000000000000000000000000000000000000000000000000000000000000ffffffff3c0374b906000418b9395804169fd2200c008b3a589d990000000000000a636b706f6f6c182f426974436c7562204e6574776f726b2f5345475749542fffffffff02ed9d5a4e000000001976a9142cc2b87a28c8a097f48fcc1d468ced6e7d39958d88ac0000000000000000266a24aa21a9edb47f7b59b60745f8875bba627138627aee32be165720c0e13ddbb62859d22c1900000000",
		"txid": "0c23dcc5541b3989641e4d00c9f0b8509b6e2edcb4e1e7713ef7993b9ced4e55",
		"hash": "0c23dcc5541b3989641e4d00c9f0b8509b6e2edcb4e1e7713ef7993b9ced4e55",
		"size": 192,
		"vsize": 192,
		"version": 1,
		"locktime": 0,
		"vin": [
			{
				"coinbase": "0374b906000418b9395804169fd2200c008b3a589d990000000000000a636b706f6f6c182f426974436c7562204e6574776f726b2f5345475749542f",
				"sequence": 4294967295
			}
		],
		"vout": [
			{
				"value": 13.14561517,
				"n": 0,
				"scriptPubKey": {
					"asm": "OP_DUP OP_HASH160 2cc2b87a28c8a097f48fcc1d468ced6e7d39958d OP_EQUALVERIFY OP_CHECKSIG",
					"hex": "76a9142cc2b87a28c8a097f48fcc1d468ced6e7d39958d88ac",
					"reqSigs": 1,
					"type": "pubkeyhash",
					"addresses": [
						"155fzsEBHy9Ri2bMQ8uuuR3tv1YzcDywd4"
					]
				}
			},
			{
				"value": 0.00000000,
				"n": 1,
				"scriptPubKey": {
					"asm": "OP_RETURN aa21a9edb47f7b59b60745f8875bba627138627aee32be165720c0e13ddbb62859d22c19",
					"hex": "6a24aa21a9edb47f7b59b60745f8875bba627138627aee32be165720c0e13ddbb62859d22c19",
					"type": "nulldata"
				}
			}
		],
		"blockhash": "000000000000000001ad9ed874da95393a94746d5eb84c9a0e5b3e4b1f59b4f4",
		"confirmations": 268,
		"time": 1480177944,
		"blocktime": 1480177944
	},
	"error": null,
	"id": null
}