{
	"result": {
		"hex": "0100000002adca4dbea1cdfe84b4b215066e05696690bd2ac4c3a0e50673b5d38e921cfd72000000006b48304502210094bb46d4acb92949fbd68e54b03f1142378b9579e9046384e1e823b7ca0aa15c02207e5e6bbb2fb56b576201de0422e2ee7dc8f769651892b50ff2d4da2534b6405a012103593785c012f2e08804de6981e539eecbd209bc6c88ebb2b24007c796e1d39d5dfeffffffccc4eecc415a67d730bc5aa542b58116b8c3b780b214341485560abb2e615677010000006b483045022100f76391c552ba7a005cde1d21eb63b49dd1652aa9196faec4717d6417029d37cc022043457304f4d7a48ef6b0d88d38795b1fb703be007ca4feaa84b3d86e8f45cff00121032cd11e43d85bbce85ea1996f7c87d6268fb1984c621659cb3e7e00b4a67b120ffeffffff025df8a504000000001976a91490737f6faed2eb116fe1a9bae36d6042d80121c588ac547b3200000000001976a9140be354a9026afb42d4e4822d18c1139a3c5a112088ac69b90600",
		"txid": "0e352db4f159ab112759eb5a5692a6764ae47e616d5abaf2d12e095ea97cad40",
		"hash": "0e352db4f159ab112759eb5a5692a6764ae47e616d5abaf2d12e095ea97cad40",
		"size": 374,
		"vsize": 374,
		"version": 1,
		"locktime": 440681,
		"vin": [
			{
				"txid": "72fd1c928ed3b57306e5a0c3c42abd906669056e0615b2b484fecda1be4dcaad",
				"vout": 0,
				"scriptSig": {
					"asm": "304502210094bb46d4acb92949fbd68e54b03f1142378b9579e9046384e1e823b7ca0aa15c02207e5e6bbb2fb56b576201de0422e2ee7dc8f769651892b50ff2d4da2534b6405a[ALL] 03593785c012f2e08804de6981e539eecbd209bc6c88ebb2b24007c796e1d39d5d",
					"hex": "48304502210094bb46d4acb92949fbd68e54b03f1142378b9579e9046384e1e823b7ca0aa15c02207e5e6bbb2fb56b576201de0422e2ee7dc8f769651892b50ff2d4da2534b6405a012103593785c012f2e08804de6981e539eecbd209bc6c88ebb2b24007c796e1d39d5d"
				},
				"sequence": 4294967294
			},
			{
				"txid": "7756612ebb0a5685143414b280b7c3b81681b542a55abc30d7675a41cceec4cc",
				"vout": 1,
				"scriptSig": {
					"asm": "3045022100f76391c552ba7a005cde1d21eb63b49dd1652aa9196faec4717d6417029d37cc022043457304f4d7a48ef6b0d88d38795b1fb703be007ca4feaa84b3d86e8f45cff0[ALL] 032cd11e43d85bbce85ea1996f7c87d6268fb1984c621659cb3e7e00b4a67b120f",
					"hex": "483045022100f76391c552ba7a005cde1d21eb63b49dd1652aa9196faec4717d6417029d37cc022043457304f4d7a48ef6b0d88d38795b1fb703be007ca4feaa84b3d86e8f45cff00121032cd11e43d85bbce85ea1996f7c87d6268fb1984c621659cb3e7e00b4a67b120f"
				},
				"sequence": 4294967294
			}
		],
		"vout": [
			{
				"value": 0.77985885,
				"n": 0,
				"scriptPubKey": {
					"asm": "OP_DUP OP_HASH160 90737f6faed2eb116fe1a9bae36d6042d80121c5 OP_EQUALVERIFY OP_CHECKSIG",
					"hex": "76a91490737f6faed2eb116fe1a9bae36d6042d80121c588ac",
					"reqSigs": 1,
					"type": "pubkeyhash",
					"addresses": [
						"1EAnfYyTMQXxxV2ssDapULyyLmSiYwAhqi"
					]
				}
			},
			{
				"value": 0.03308372,
				"n": 1,
				"scriptPubKey": {
					"asm": "OP_DUP OP_HASH160 0be354a9026afb42d4e4822d18c1139a3c5a1120 OP_EQUALVERIFY OP_CHECKSIG",
					"hex": "76a9140be354a9026afb42d4e4822d18c1139a3c5a112088ac",
					"reqSigs": 1,
					"type": "pubkeyhash",
					"addresses": [
						"125rmKp7MfXVBdQKaYuQokGpCeCCrvQCC8"
					]
				}
			}
		],
		"blockhash": "000000000000000001ad9ed874da95393a94746d5eb84c9a0e5b3e4b1f59b4f4",
		"confirmations": 268,
		"time": 1480177944,
		"blocktime": 1480177944
	},
	"error": null,
	"id": null
}